:100000000C9433000C94A5000C9445000C9445000E
:100010000C9445000C9445000C9445000C9445004C
:100020000C9445000C9445000C9445000C9445003C
:100030000C9445000C9445000C9445000C9445002C
:100040000C9445000C9445000C9445000C9445001C
:100050000C9445006D007D00820087008C009100AB
:1000600096009B00A00011241FBECFE5D8E0DEBFA4
:10007000CDBF20E0A0E6B0E001C01D92A136B207DE
:10008000E1F70E94D8000C9407020C94000064E091
:1000900081E40E94C30063E081E40E94C30062E047
:1000A00081E40E94C30061E081E40E94C30061E03A
:1000B00083E40E94BC000E94F50183E00E94FB01E2
:1000C0000E94F7010895E0916000F0E0E930F10549
:1000D000D0F7E65DFF4F0C94010264E081E40E94DA
:1000E000D10063E081E40E94D10062E081E40E94DB
:1000F000D10061E081E40E94D10064E081E40E94CB
:10010000CA00E1CF63E081E40E94CA00DCCF62E074
:1001100081E40E94CA00D7CF61E081E40E94CA0056
:10012000D2CF64E081E40E94D100CDCF63E081E4CE
:100130000E94D100C8CF62E081E40E94D100C3CF09
:1001400061E081E40E94D100BECF1F920F920FB6F2
:100150000F9211248F9380916000883020F48F5F7C
:100160008093600003C081E0809360008F910F90C6
:100170000FBE0F901F901895982F862F40E0692F83
:100180000E94DF000895982F862F41E0692F0E947A
:10019000DF000895982F862F41E0692F0E946A01A1
:1001A0000895982F862F40E0692F0E946A010895D4
:1001B0000E9447000E94630080E090E0089562344E
:1001C00059F118F4613441F00895633409F444C0DE
:1001D000643409F460C0089541110EC04AB321E0AF
:1001E00030E0B90102C0660F771F8A95E2F7CB01B4
:1001F000809584238ABB0895413009F06AC04AB3D0
:1002000021E030E0B90102C0660F771F8A95E2F75E
:10021000CB01842B8ABB089541110EC047B321E066
:1002200030E0B90102C0660F771F8A95E2F7CB0173
:100230008095842387BB0895413009F04AC047B3B5
:1002400021E030E0B90102C0660F771F8A95E2F71E
:10025000CB01842B87BB089541110EC044B321E02C
:1002600030E0B90102C0660F771F8A95E2F7CB0133
:100270008095842384BB0895413059F544B321E02F
:1002800030E0B90102C0660F771F8A95E2F7CB0113
:10029000842B84BB089541110EC041B321E030E0AE
:1002A000B90102C0660F771F8A95E2F7CB018095EE
:1002B000842381BB0895413061F441B321E030E0F3
:1002C000B90102C0660F771F8A95E2F7CB01842B34
:1002D00081BB0895623459F118F4613441F00895F6
:1002E000633409F444C0643409F460C008954111D2
:1002F0000EC04BB321E030E0B90102C0660F771F9A
:100300008A95E2F7CB01809584238BBB0895413019
:1003100009F06AC04BB321E030E0B90102C0660FBA
:10032000771F8A95E2F7CB01842B8BBB089541118F
:100330000EC048B321E030E0B90102C0660F771F5C
:100340008A95E2F7CB018095842388BB08954130DC
:1003500009F04AC048B321E030E0B90102C0660F9D
:10036000771F8A95E2F7CB01842B88BB0895411152
:100370000EC045B321E030E0B90102C0660F771F1F
:100380008A95E2F7CB018095842385BB089541309F
:1003900059F545B321E030E0B90102C0660F771F7F
:1003A0008A95E2F7CB01842B85BB089541110EC0DD
:1003B00042B321E030E0B90102C0660F771F8A9591
:1003C000E2F7CB018095842382BB0895413061F42C
:1003D00042B321E030E0B90102C0660F771F8A9571
:1003E000E2F7CB01842B82BB0895789408958BB7F4
:1003F00080648BBF0895833019F485B7836085BF0F
:100400000895EE0FFF1F0590F491E02D0994F894E4
:02041000FFCF1C
:00000001FF
